:020000040800F2
:1000000000A0002041EA000871BF000873BF00088B
:1000100075BF000877BF000879BF00080000000026
:100020000000000000000000000000007BBF00088E
:100030007DBF0008000000007FBF000881BF0008EE
:1000400091EA000891EA000891EA000891EA0008A4
:1000500091EA000891EA00088FBF000895BF0008E8
:1000600091EA000891EA000891EA000891EA000884
:1000700091EA000891EA000891EA000891EA000874
:1000800091EA000891EA000891EA000891EA000864
:100090009BBF000891EA000891EA000891EA000875
:1000A00091EA000891EA000891EA000891EA000844
:1000B00091EA000891EA000891EA000891EA000834
:1000C00091EA000891EA000891EA000891EA000824
:1000D00091EA000891EA000891EA000891EA000814
:1000E00091EA000891EA000891EA00080000000087
:1000F0000000000000000000000000000000000000
:1001000000000000000000000000000091EA00086C
:1001100091EA000891EA000891EA00080000000056
:1001200091EA000891EA000891EA000891EA0008C3
:1001300091EA00080000000000000000000000003C
:1001400091EA000891EA00080000000000000000A9
:10015000000000000000000000000000000000009F
:10016000000000000000000091EA000891EA000889
:1001700091EA0008000000000000000000000000FC
:080180000000000091EA0008F4
:1001900010B5054C237833B9044B13B10448AFF3C1
:1001A00000800123237010BD180300200000000010
:1001B000D00C01080C4B43B10C480D4910B5AFF3FE
:1001C00000800C48036823B910BD0A48036833B99E
:1001D0007047094B002BF7D0BDE810401847064B7D
:1001E000002BF5D0184700BF00000000D00C01081C
:1001F0001C0300201403002000000000154B002BFE
:1002000008BF134B9D46A3F5803A00218B460F464D
:100210001348144A121A0EF0B0FC0F4B002B00D0FA
:1002200098470E4B002B00D0984700200021040077
:100230000D000D48002802D00C48AFF300800EF0EE
:100240005DFC200029000EF025FC0EF043FC00BFF1
:100250000000080000000000000000000000000096
:1002600018030020501B00200000000000000000C8
:1002700018110108000000201403002018030020BA
:10028000501B0020124B1A6842F001021A60596894
:10029000104A0A405A601A6822F0847222F48032AE
:1002A0001A601A6822F480221A605A6822F4FE0248
:1002B0005A60DA6A22F00F02DA62196B064A0A40C3
:1002C0001A6300229A60054B4FF000629A607047F3
:1002D000001002400CC07FF8CCFC00FF00ED00E0F5
:1002E000154A1649536803F00C03042B10B50CD0C3
:1002F000082B0CD0124B0B605368124AC3F3031344
:10030000D25C0B68D3400B6010BD0F4BF3E7536812
:100310005068C00349BFD06A0C480B4C00F00F0076
:10032000C3F3834348BF013003F1020348BFB4FB6A
:10033000F0F04343DFE700BF00100240040000205C
:1003400000127A00F00C01080024F40000093D00BE
:100350007047704710B5074B4FF0FF3200241A6109
:100360001C61DA60DC609A629C62FFF7F2FF204653
:1003700010BD00BF0010024010B5084B04461868BD
:100380004FF47A73B0FBF3F002F03EF900222146FD
:100390004FF0FF3002F0D8F8002010BD040000201C
:1003A000074A08B5136843F010031360032002F0F6
:1003B000B9F80020FFF7E0FF0BF09CFD002008BD1E
:1003C00000200240024A136801331360704700BFE7
:1003D00048030020014B1868704700BF4803002005
:1003E00013B50190FFF7F6FF0446FFF7F3FF019BFB
:1003F000001B9842F9D302B010BD034A136823F0E2
:1004000002031360704700BF10E000E0024A136867
:1004100043F002031360704710E000E000487047AB
:1004200000000301014B1868000C7047002004E035
:10043000024B1868C0F30B00704700BF002004E0B7
:10044000024A536843F0010353607047002004E000
:10045000024A536823F0010353607047002004E010
:10046000024A536843F0020353607047002004E0DF
:10047000024A536823F0020353607047002004E0EF
:10048000024A536843F0040353607047002004E0BD
:10049000024A536823F0040353607047002004E0CD
:1004A0000120704701207047704770470120704756
:1004B00001207047012070470120704701207047DC
:1004C0000120704701207047012070470368186CB5
:1004D00070477047704770477047704701207047FA
:1004E00001207047406C7047806C704738B50368D6
:1004F0000446986800F00300012801D0002038BDB0
:100500001A68D207FAD59A6802F00D02012A1BD1A7
:100510009A6842F002029A6003221A60FFF75AFFBB
:10052000054623689B68DB07E8D5FFF753FF401BB0
:100530000228F6D9636C43F010036364A36C43F0A4
:100540000103A364012038BD636C43F010036364AE
:10055000A36C43F00103A36438BD03689A6812F0EA
:100560000C0F70B5044601D1002070BDDA6890010F
:1005700026D5E269012A23D1A269012A20D1204A85
:100580001968490610D540221A600C219A6856074E
:1005900006D59A6895075EBF9A6842F010029A6085
:1005A0000C290FD104251EE0013AE9D1636C43F018
:1005B00010036364A36C43F00103A364012070BDC6
:1005C0006029E3D19A68100706D59A6892075EBF42
:1005D0009A6842F020029A60602903D06C29E1D128
:1005E0000C2500E00825FFF7F5FE064623689B680A
:1005F0001D42B9D0FFF7EEFE801B0B28F6D9D5E7D8
:100600000194090038B503689A6802F00302012AD0
:10061000044604D11A68D20701D5002038BD996874
:100620000E4A11420FD19A6842F001029A60FFF718
:10063000D1FE054623681B68DB07EED4FFF7CAFE30
:10064000401B0228F6D9636C43F010036364A36C6B
:1006500043F00103A364012038BD00BF3F000080C8
:10066000406A436C43F040034364836C43F00403EB
:100670008364FFF732BF406AFFF72DBF436A5A6CAD
:1006800012F0500F18D15A6C42F400725A641A6872
:10069000D26812F4406F0CD1DA6952B95A6C22F464
:1006A00080725A645A6CD2045EBF5A6C42F00102E6
:1006B0005A641846FFF70EBFDB6B1B6B184770B50B
:1006C00096B0002300930446002800F0E380426CBB
:1006D000D50600F1CC80436C002B00F09280002006
:1006E00023689A68D20002D59B689B000AD5636C88
:1006F00023F0120343F010036364A36C43F001037F
:10070000A3640120636CDE0600F1BE80002840F087
:10071000BB802368996811F0040140F0B580626CD9
:1007200022F4817242F00202B3F1A04F62640CBF66
:10073000594A4FF0A04201929A6802F00302012A3E
:1007400002D11A68D50710D4019A3AB1956805F01C
:100750000305012D02D11268D20706D44F4D6668F9
:10076000AA6822F440323243AA60A26BA668E56907
:10077000012AE26842EA060218BF4FF4805142EAB9
:1007800045320A43616A012907D1002D71D1A16A5E
:10079000013942EA414242F48032E16A01291EBF36
:1007A000256B29430A43996811F00C0F0BD1D968C6
:1007B000A56921F4804121F00201D960616B4900F3
:1007C00041EA85310A43DD68354929400A43DA6048
:1007D0002269012A05BF196B226A1A6B02F1FF32E6
:1007E00006BF21F00F010A4322F00F021A63002313
:1007F000A364636C23F0030343F00103636416B046
:1008000070BD83640365C36480F84030FFF74CFE1D
:1008100023689B68D8003FF562AF2046FFF766FE6D
:10082000626CD1063FF55CAF00287FF459AF636C72
:1008300023F4885323F0020343F002036364236824
:100840009A6822F040529A609A6842F080529A6008
:10085000144B154A1B68B3FBF2F20A23534300936F
:10086000009B002B3FF43BAF009B013BF7E7184692
:1008700048E7616C21F0220141F020016164A16C24
:1008800041F00101A16488E7636C23F0120343F097
:10089000100363640120B2E7000100500003005020
:1008A00007C0F0FF0400002040420F0030B50446AE
:1008B00097B0002800F0A980436C43F00203436422
:1008C0006C21FFF74AFE0546002840F0968022681A
:1008D000D36843F40013D3602046FFF707FE0123DB
:1008E0000546002840F08F806364236848485A68B2
:1008F00022F4FF6222F007025A6040F2FF721A608F
:100900009A6822F0E0429A609A6842F000529A6037
:10091000D968404A0A40DA605A6922F07F5222F4CC
:100920007F1222F47F5222F038025A619A6902F053
:1009300078429A611A6A02F0F0221A625A6A02F048
:10094000FF225A629A6A02F0FF229A62196B324AB7
:100950000A401A63596B014059639A6B02409A63CB
:10096000DA6B22F4FB6222F00702DA63196E2B4A7B
:1009700011401966596E11405966996E1140996679
:10098000D96E0A40DA66D3F8A02025490A40C3F898
:10099000A020D3F8A4200A40C3F8A420D3F8B020A4
:1009A0000A40C3F8B020D3F8B420B3F1A04F22F02E
:1009B0007F12C3F8B4200CBF1A4A4FF0A042019234
:1009C0009A6802F00302012A02D11B68DA070ED4EA
:1009D000019B3BB19A6802F00302012A02D11B6815
:1009E000DB0704D4104A114B91680B4093602046FA
:1009F000FFF75BFD0023A3646364002384F84030A9
:100A0000284617B030BD1D46F7E70125F8E700BFBF
:100A1000200882E004800080300882E000F0FF03BC
:100A20000000F8FF0001005000030050E0103CFE01
:100A300038B503689D6815F00405044658D190F850
:100A40004030012B54D0012380F84030FFF7DAFD0D
:100A500000284AD1636C23F4706323F0010343F44C
:100A600080736364234B9B68626C13F01F0F2368D1
:100A700002D0B3F1A04F2ED122F480126264DA6862
:100A8000950141BF626C22F4405242F4805262648C
:100A9000626C12F480521CBFA26C22F00602A264A7
:100AA000002284F840201C221A60124A9168C9066C
:100AB0000CD0916801F01F01052907D0926802F05F
:100AC0001F02092A02D0B3F1A04F12D19A6842F056
:100AD00004029A6038BD42F480126264064A93426E
:100AE000D6D14FF0A042D268CAE784F8405038BD52
:100AF000022038BD000300500001005090F8403043
:100B0000012B10B5044616D0012380F840306C212B
:100B1000FFF723FD58B92046FFF7E8FC38B9636CAE
:100B200023F4885323F0010343F00103636400239B
:100B300084F8403010BD022010BD2DE9F041466917
:100B4000082E04460F461CD0374A936813F01F0343
:100B50000CD10268D268D10712D5426C42F0200253
:100B6000426484F840300120BDE8F081936813F4BA
:100B7000404F05D0436C43F0200343640023F0E76B
:100B80000C26294B9B6813F01F0F236804D0B3F188
:100B9000A04F18BF4FF0A043DD68FFF71BFC804655
:100BA00023681A68164222D0626C42F400726264B2
:100BB000DA6812F4406F13D1A80411D41A6811072F
:100BC0000ED59A6812F0040F626C24D122F4807260
:100BD0006264626CD20403D4626C42F0010262640B
:100BE00015F480400CBF1E600020BDE8F0817A1C27
:100BF000D7D04FB9636C43F004036364002384F8D7
:100C000040300320BDE8F081FFF7E4FBA0EB0800D3
:100C10008742C5D2EEE742F020026264A26C42F045
:100C20000102A264DCE700BF00030050F8B50446EF
:100C30000D461646FFF7CEFB074623681A6835EACD
:100C4000020213D1B5F5807F38D021D8802D2ED067
:100C5000A26B012A07D1626C42F480626264A26CCA
:100C600042F00202A26410221A6025E0721CE5D054
:100C700046B9636C43F004036364002384F8403096
:100C80000320F8BDFFF7A6FBC01B8642D5D2F0E7D4
:100C9000B5F5007F16D0B5F5806FD9D1626C42F4FE
:100CA00080426264A26C42F00802A26403E0626CBB
:100CB00042F4803262641D600020F8BD626C42F430
:100CC0000032F7E7626C42F48022F3E738B503683C
:100CD0009D6815F0040504466DD190F84030012B55
:100CE00069D0012380F84030FFF78CFC00285FD1E9
:100CF000636C23F4706323F0010343F48073636433
:100D00002E4B9B68626C13F01F0F236802D0B3F167
:100D1000A04F43D122F480126264DA68950141BF8A
:100D2000626C22F4405242F480526264626C12F4AB
:100D300080521CBFA26C22F00602A264002284F83A
:100D400040201C221A606269082A5A6803BF22F0F8
:100D500004025A605A6842F00C0208BF42F00802CE
:100D60005A60A26B012A02BF5A6822F010025A6030
:100D7000124A9168C9060CD0916801F01F0105293B
:100D800007D0926802F01F02092A02D0B3F1A04FE7
:100D900012D19A6842F004029A6038BD42F480127F
:100DA0006264074A9342C1D14FF0A042D268B5E7CE
:100DB00084F8405038BD022038BD00BF0003005009
:100DC0000001005090F84030012B10B504461BD0B4
:100DD000012380F840306C21FFF7BFFB80B9226807
:100DE000536823F01C0353602046FFF77FFB38B99C
:100DF000636C23F4885323F0010343F0010363641D
:100E0000002384F8403010BD022010BD2DE9F843C6
:100E100003689B6813F0040304460F46904671D1A3
:100E200090F84020012A6DD0DFF8EC90D9F80850F6
:100E3000012615F01F0580F8406060D1FFF7E2FB46
:100E40000646002858D1606C216820F4706020F0BC
:100E5000010040F480706064D9F8083013F01F0F6F
:100E6000636C02D0B1F1A04F34D123F480136364DA
:100E7000CB689A0105D5636C23F4405343F4805347
:100E80006364636CE06B13F480531CBFA36C23F0AA
:100E90000603A364002384F840301B4B83621B4B82
:100EA000C3621B4B03631C230B604B6843F01003AE
:100EB0004B60CB6843F00103CB603A464346403178
:100EC00001F093FD2268936843F004039360304679
:100ED000BDE8F88343F4801363640E4B9942D0D18C
:100EE0004FF0A043DB689B0141BF606C20F4405091
:100EF00040F480506064C4E784F84050E7E780F82D
:100F00004030E4E70226E2E77D06000877060008A5
:100F100061060008000100500003005038B590F849
:100F20004030012B044631D0012380F840306C2141
:100F3000FFF713FB0546C0B92268E06BD36823F0C6
:100F40000103D36001F07EFD054618B1636C43F0E8
:100F5000400363642268536823F010035360204603
:100F600045B9FFF7C3FA054638B1002384F840308D
:100F7000284638BDFFF7BAFAF7E7636C23F48853C5
:100F800023F0010343F001036364EEE70225EFE77A
:100F90000368186C7047F8B590F84030012B044690
:100FA0000F463BD0012680F84060FFF79FFA0546C8
:100FB000002831D1236866649A6822F080429A60E2
:100FC000B74202BF9A6842F080429A609A6842F043
:100FD00000429A60FFF7FEF9064623689B68002BE3
:100FE00009DB636C23F0030343F001036364002314
:100FF00084F840300EE0FFF7EDF9801B0A28ECD9A9
:10100000636C23F0120343F010036364002384F83D
:10101000403001252846F8BD3546E8E70225F9E7C6
:101020000368D3F8B40001290CBF000C00F07F0066
:10103000704790F84030012B10B514D0012380F890
:10104000403003689C6804F00304012C02D11C6842
:10105000E4070AD4436C43F020034364836C43F0F9
:101060000103836412E0022010BD9C6814F00C0F91
:10107000F0D10129D3F8B4100BBF21F4FE0121F007
:101080007F0141EA02420A43C3F8B420002380F8FA
:101090004030184610BD38B503689D6815F0080546
:1010A000044648D190F84030012B44D0012380F809
:1010B0004030FFF7A7FA00283AD1636C23F440537D
:1010C00023F0010343F4805363641C4B9B68626C00
:1010D00013F01F0F236802D0B3F1A04F25D122F4E3
:1010E00080126264626C12F4807208BFA2640022F3
:1010F00084F8402060221A60DA6894011CD40F4AF8
:101100009168C9060CD0916801F01F01062907D02B
:10111000926802F01F02072A02D0B3F1A04F0BD150
:101120009A6842F008029A6038BD42F48012D8E70B
:1011300084F8405038BD022038BD00BF0003005085
:1011400090F84030012B10B504462BD00268D268CD
:101150000123910180F840301ED46021FFF7FDF992
:1011600090B923689B685A0712D4636CDB050FD4CF
:101170002046FFF7BBF938B9636C23F4885323F09A
:10118000010343F001036364002384F8403010BD81
:10119000636C23F48053F6E7426C42F02002426411
:1011A0001846F1E7022010BD4369082B274B9B68C6
:1011B0002DE9F0410CBF4026602613F01F0F0446B6
:1011C0000F46036804D0B3F1A04F18BF4FF0A043FF
:1011D000DD68FFF7FFF8804623681A68164221D0C1
:1011E000626C42F400526264DA6C12F0C00F07D0F5
:1011F000A80110D4DA6812F4406F0CD1A9040AD403
:10120000626C22F480526264626CD2055EBF626CD2
:1012100042F00102626415F480400CBF1E600020A1
:10122000BDE8F0817A1CD8D04FB9636C43F0040359
:101230006364002384F840300320BDE8F081FFF7A9
:10124000C9F8A0EB08008742C6D2EEE700030050C1
:1012500038B503689D6815F0080504465DD190F81F
:101260004030012B59D0012380F84030FFF7CAF9F4
:1012700000284FD1636C23F4405323F0010343F45F
:1012800080536364264B9B68626C13F01F0F2368C6
:1012900002D0B3F1A04F3AD122F480126264626CA2
:1012A00012F4807208BFA264002284F840206022F9
:1012B0001A60DA68950242BF5A6842F480625A6046
:1012C0006269082A5A6803BF22F020025A605A68ED
:1012D00042F0600208BF42F040025A60DA689401AE
:1012E0001CD40F4A9168C9060CD0916801F01F0107
:1012F000062907D0926802F01F02072A02D0B3F134
:10130000A04F0BD19A6842F008029A6038BD42F4AF
:101310008012C3E784F8405038BD022038BD00BFBA
:101320000003005090F84030012B10B504462FD038
:101330000268D2680123910180F8403022D46021F4
:10134000FFF70BF9B0B923685A6822F48C625A602F
:101350009B685A0712D4636CDB050FD42046FFF755
:10136000C5F838B9636C23F4885323F0010343F0C4
:1013700001036364002384F8403010BD636C23F4E0
:101380008053F6E7426C42F0200242641846F1E7CF
:10139000022010BDF0B590F84030012B97B0044604
:1013A0000E46174603D10225284617B0F0BD01238B
:1013B00080F8403003689A685207F4D4B3F1A04F24
:1013C00004BF03F580730193019A3AB9436C80F826
:1013D000402043F0200343640125E5E7FFF712F9BD
:1013E0000546002831D101A8FFF70CF90546002871
:1013F0002BD1626C174BE06B1749134043F4807399
:1014000022686364D3689B0141BF636C23F440533B
:1014100043F4805363640023A36484F840300F4B8B
:1014200083620F4BC3620F4B03631C23136053682B
:1014300043F0100353603B46324601F0D6FA22686F
:10144000936843F004039360AEE7002384F84030D0
:10145000AAE700BFFEF0EFFF0C0300507D06000876
:10146000770600086106000830B590F84030012B7F
:1014700097B0044661D0012380F840306C21FFF71B
:101480006CF8054600283ED12368B3F1A04F04BF95
:1014900003F580730193019A4AB9636C84F8402084
:1014A00043F0400363640125284617B030BDFEF7C2
:1014B00091FF054623689B685A0728D4019B9B68C7
:1014C0005B0724D4E06B01F0BDFA054618B1636CEC
:1014D00043F0400363642268536823F010035360B1
:1014E00020460DBBFFF702F801280CD001A8FEF73B
:1014F000FDFF012807D0636C23F4885323F0010318
:1015000043F001036364002384F84030CCE7FEF726
:1015100061FF401B0B28CDD9636C43F0100363645B
:10152000002384F84030BEE7FEF7E0FF01A8FEF795
:10153000DDFF636C43F01003E4E70225B4E7014BE1
:10154000D8687047000300500329036809D00429B4
:1015500004D0022908D1D3F884007047D3F88C0056
:101560007047D3F888007047D3F88000704790F830
:101570004030012B10B5044620D0012380F84030C4
:101580000C21FEF7EAFF23689B681A0712D4636CEC
:10159000DB040FD42046FEF7A9FF38B9636C23F4AF
:1015A000885323F0010343F001036364002384F8AC
:1015B000403010BD636C23F48073F6E7022010BD49
:1015C00090F84030012B10B5044624D0012380F858
:1015D00040300C21FEF7C1FF23689A68110716D42A
:1015E000626CD20413D45A6822F01C025A6020465E
:1015F000FEF77CFF38B9636C23F4885323F00103B2
:1016000043F001036364002384F8403010BD636C31
:1016100023F48073F6E7022010BD38B590F840300F
:10162000012B04463AD0012380F840300C21FEF70C
:1016300094FF23689A68110705462BD4626CD20484
:1016400028D4DA68E06B22F00102DA6001F0FAF9DE
:10165000054618B1636C43F0400363642268536825
:1016600023F010035360204645B9FEF73FFF0546BF
:1016700038B1002384F84030284638BDFEF736FFE5
:10168000F7E7636C23F4885323F0010343F001036D
:101690006364EEE7636C23F48073F9E70225EBE7FC
:1016A00030B590F84030012B97B0044669D0012343
:1016B00080F840300C21FEF750FF23689A680546F9
:1016C00010075AD4626CD10457D4B3F1A04F04BFB1
:1016D00003F580730193019A4AB9636C84F8402042
:1016E00043F0400363640125284617B030BDFEF780
:1016F00071FE054623689B685A0728D4019B9B68A6
:101700005B0724D4E06B01F09DF9054618B1636CCA
:1017100043F0400363642268536823F0100353606E
:1017200020460DBBFEF7E2FE01280CD001A8FEF713
:10173000DDFE012807D0636C23F4885323F00103F6
:1017400043F001036364002384F84030CCE7FEF7E4
:1017500041FE401B0B28CDD9636C43F0100363643A
:10176000002384F84030BEE7FEF7C0FE01A8FEF774
:10177000BDFE636C43F01003E4E7636C23F48073F5
:10178000E0E70225B0E7704770477047704703688D
:101790001A68510710B5044602D55A68520705D495
:1017A0001A6810073ED55A6811073BD5626CD206FD
:1017B0005EBF626C42F400726264924A9168C8062D
:1017C0000DD0916801F01F01052908D0926802F040
:1017D0001F02092A03D0B3F1A04F40F0E480DA6879
:1017E000D96811F4406F17D1910415D41A68120703
:1017F00012D59A68500700F1DA805A6822F00C027C
:101800005A60636C23F480736364636CD90403D4FB
:10181000636C43F0010363642046FEF75BFE2368BC
:101820000C221A6023681A68920602D55A6890063C
:1018300005D41A68510656D55A68520653D5626CBB
:1018400042F4005262646F4A9168C8060DD09168F4
:1018500001F01F01052908D0926802F01F02092A31
:1018600003D0B3F1A04F40F0AB80DA68D96C11F02F
:10187000C00F07D0910130D4D96811F4406F2CD13A
:1018800092042AD41A68500627D55E4A9168C90680
:101890000DD0916801F01F01062908D0926802F06E
:1018A0001F02072A03D0B3F1A04F40F08D80DA6801
:1018B000920212D49A68100700F18A805A6822F0C6
:1018C00060025A60636C23F480536364636CD905CF
:1018D00003D4636C43F0010363642046FFF753FFB6
:1018E000236860221A6023681A6812060CD55B68A8
:1018F0001B0609D5636C43F4803363642046FEF70E
:10190000EBFD236880221A6023681A68D0050DD584
:101910005B68D9050AD5636C43F4003363642046E1
:10192000FFF733FF23684FF480721A6023681A6848
:1019300092050DD55B6898050AD5636C43F4802346
:1019400063642046FFF722FF23684FF400721A6099
:1019500023681A68D10610D55A68D2060DD5A26B35
:10196000012A42D0274A9168C8063AD1DB6813F0B1
:10197000010F3AD1236810221A6023681A685105B2
:101980003FD55A6852053CD5626C42F4804262648D
:10199000A26C42F00802A2644FF480621A602046F2
:1019A000FFF7F2FE10BD4FF0A042D26818E7636C5B
:1019B00043F010036364A36C43F00103A3642BE7BB
:1019C0004FF0A042D26851E74FF0A042D2686FE7D3
:1019D000636C43F010036364A36C43F00103A364DE
:1019E0007BE7936813F4404FC3E7636C43F4806371
:1019F0006364A36C43F00203A3642046FEF76DFD0D
:101A0000B8E710BD00030050F0B597B00023009375
:101A100090F84030012B054600F051812B68CE68CC
:101A20009A680120540785F8400000F14381486816
:101A30000C6804284FF0060231D842431F6B1F2068
:101A4000904027EA000004FA02F202431A639A68FF
:101A500012F00C0F62D1092C4FEA44028F6846D96C
:101A6000224498691E3A4FF0070E0EFA02FE20EA51
:101A70000E0007FA02F202439A61DA68C2F3C10E5D
:101A80004A694FEA4E0E02FA0EFE0A69013A4FEA1F
:101A9000846C032A73D8DFE802F037515C670928A9
:101AA0000BD842435F6B1E3A1F20904027EA00008C
:101AB00004FA02F202435A63C9E70E280BD84243E4
:101AC0009F6B3C3A1F20904027EA000004FA02F284
:101AD00002439A63BBE74243DF6B5A3A1F209040B0
:101AE00027EA000004FA02F20243DA63AFE758691A
:101AF00022444FF0070E0EFA02FE20EA0E0007FA0B
:101B000002F202435A61B8E71A6E7A4F174047EA69
:101B10000C0242F0004242EA0E021A669A6802F093
:101B20000302012A40F0CD801A68D00740F1C98035
:101B30000020002385F8403017B0F0BD5A6E6D4F7D
:101B4000174047EA0C0242F0004242EA0E025A668F
:101B5000E4E79A6E6748104040EA0C0242F0004207
:101B600042EA0E029A66D9E7D86E624A024042EA19
:101B70000C0242F0004242EA0E02DA66CEE71A6E2A
:101B800002F0F842624502BF1A6E22F000421A6665
:101B90005A6E02F0F842944502BF5A6E22F000429B
:101BA0005A669A6E02F0F842944502BF9A6E22F08D
:101BB00000429A66DA6E02F0F8429445AED1DA6ECF
:101BC00022F00042D9E7D3F8B0200121A14022EA57
:101BD0000102C3F8B020102C43D1474A926812F496
:101BE000000FA5D1B3F1A04F0CBF444A4FF0A04263
:101BF00001929A6802F00302012A02D11A68D10701
:101C000052D4019A3AB1916801F00301012902D13D
:101C10001268D20748D4102C32D1B3F1A04F87D12B
:101C2000354A936843F400039360354B354A1B688B
:101C3000B3FBF2F20A2353430093009B002B3FF4C3
:101C400077AF009B013BF7E7601C596900EB400050
:101C50000722824021EA020106FA00F20A435A6191
:101C6000B9E7112C04D1244A926812F0807FB8E7BA
:101C7000122C7FF45DAF204A926812F4800FB0E717
:101C8000112C09D1B3F1A04F7FF452AF1A4A9368D7
:101C900043F0807393604BE7122C7FF449AF164AF0
:101CA000936843F48003F5E76B6C43F020036B64A7
:101CB00001203EE76B6C43F020036B6439E70220A0
:101CC0003AE7012E7FF47FAFD3F8B020A640164349
:101CD000092CC3F8B0608E68B6D904EB4402996948
:101CE0001B3A0720904021EA000106FA02F20A435B
:101CF0009A6170E700F0FF8300030050000100507C
:101D00000400002040420F00F0B597B0002300937C
:101D100090F84030012B044600F0A08100694A6829
:101D2000012384F84030236810B18D69012D61D101
:101D3000012A17D1886A0A6801281EBFCD6A284384
:101D400040EA0222D86C20F0FB4020F4EF0020F49F
:101D5000BF4008BF120220F07F001043D864E26445
:101D6000002004E0626C42F02002626401209A6864
:101D700017070CD401F11C0264CA002D68D1DD687C
:101D8000120542EA465225F440152A43DA609A6861
:101D900012F00C0F40F088808A6A0D6A012ADA6816
:101DA00022F0007262D142EA4562DA600A688F6806
:101DB000092A4FEA420562D915449E691E3D4FF03B
:101DC000070E0EFA05FE26EA0E0607FA05F535435C
:101DD0009D61DD684E69C5F3C1056D0006FA05F524
:101DE0000E69013E9206032E00F29D80DFE806F0A8
:101DF00054808992206D60B98E6AE064012E18BF0C
:101E0000C86A256518BF064305F1FF3518BF35437D
:101E1000E5640620504302301F2202FA00F5E26C0E
:101E200022EA05020D6805FA00F00243206DE26423
:101E300001382065002893D1DD6C25F0FB4525F4A1
:101E4000EF0525F4BF4525F07F052A43DA648EE7C8
:101E5000DD6825F4401545EA4655012ADD6001BFDD
:101E6000606C40F020006064104690E7012DDA605D
:101E700001BF626C42F020026264284696E75E6908
:101E800015444FF0070E0EFA05FE26EA0E0607FA75
:101E900005F535435D619CE71F6E714E42F00042CF
:101EA0003E4032432A431A669A6802F00302012A2E
:101EB00003D11A68D60700F19680CD680A68012D13
:101EC00055D1D3F8B0608F6895403543092AC3F8DF
:101ED000B05040F28D8002EB42019D691B3907260C
:101EE0008E4025EA060507FA01F12943996146E08B
:101EF0005F6E5B4E42F000423E4032432A435A66D8
:101F0000D2E79F6E564E42F000423E4032432A4393
:101F10009A66C9E7DF6E524E42F000423E403243BD
:101F20002A43DA66C0E71D6E05F0F845954202BF08
:101F30001D6E25F000451D665D6E05F0F845AA4250
:101F400002BF5D6E25F000455D669D6E05F0F845AB
:101F5000AA4202BF9D6E25F000459D66DD6E05F02C
:101F6000F845AA42A0D1DA6E22F00042D9E7D3F8B0
:101F7000B0100125954021EA0501C3F8B010102AE0
:101F800043D13849896811F4000F2CD1B3F1A04F27
:101F90000CBF35494FF0A0410191996801F0030150
:101FA000012902D11968CD0752D4019939B18D6840
:101FB00005F00305012D02D10968C90748D4102A8C
:101FC00034D1B3F1A04F0ED1264A936843F40003F5
:101FD0009360264B264A1B68B3FBF2F20A23534355
:101FE0000093009BFBB9002384F8403017B0F0BD8C
:101FF000561C5D6906EB46060721B14025EA01053E
:1020000007FA06F129435961B9E7112A04D11549A4
:10201000896811F0807FB8E7122AE4D111498968F4
:1020200011F4800FB1E7009B013BD9E7112A08D1D9
:10203000B3F1A04FD7D10B4A936843F080739360FC
:10204000D1E7122ACFD1074A936843F48003F6E719
:10205000636C43F0200363640120C4E70220C5E7FA
:1020600000F0FF8300030050000100500400002036
:1020700040420F0090F84030012BF0B5054600F0CB
:10208000AB800368D1F804C0012280F84020986832
:1020900010F00C0040F09A800C68D1F814E0CE6883
:1020A00094420A692AD1DC68896824F0FB4424F44C
:1020B000800444EA816444EA0C04DC60DC68D9688A
:1020C0001F6AC1F3C1014900C4F3C1040EFA01F152
:1020D00007F0F02764003943A24041EA02421A6245
:1020E00080221A605A68012E0CBF42F0800222F052
:1020F00080025A60002385F84030F0BDD86800F0B7
:10210000180018281FBFD868C0F3C1004000C0F1F4
:10211000040018BFC240D86800F0180008BF920041
:1021200018281FBFD868C0F3C1004000C0F10400E8
:1021300014BF2EFA00FE4FEA8E0E022C27D1BCF1FE
:10214000000F1BD0586A896800F0FF2040EA024265
:1021500042EA0E025A62D3F8A00001228A400243EA
:10216000C3F8A0204FF480721A605968012E0CBF8A
:102170000A4321EA02025A600020BBE75A6A02F0D1
:10218000FF225A62D3F8A020D20CD204E8E7BCF1B7
:10219000000F12D0986A896800F0FF2040EA0242DE
:1021A00042EA0E029A62D3F8A40001228A40024356
:1021B000C3F8A4204FF40072D6E79A6A02F0FF2217
:1021C0009A62D3F8A420D20CD204F1E76B6C43F0EE
:1021D00020036B6410468DE70220F0BDF0B590F847
:1021E0004020012A97B003464FD001200A6883F8A7
:1021F00040001868B0F1A04F0CBF2E4C4FF0A04427
:1022000001948468670736D4019CA5686E0732D4B0
:10221000294EA2B14D68D6F808E02F465D6B47EA1B
:1022200045352EF460473D43B560856805F00305EC
:10223000012D2CD10068C50729D5002020E0B26807
:1022400022F46042B260826802F00302012A02D1E5
:102250000268D107F1D4A26802F00302012A02D178
:102260002268D207E9D414498A6822F4716222F004
:102270000F028A60E1E75A6C42F020025A640120A2
:10228000002283F8402017B0F0BD0220FBE7A068D1
:1022900000F00300012802D12068C007CDD4064C0D
:1022A0008968A0680A4320F4716121F00F010A4394
:1022B000A260C2E70001005000030050F0B596088C
:1022C0000B4601EB8607BB4205680AD112F00302F8
:1022D00004D0012A11F8261014D129700368186857
:1022E000F0BD5C7893F800E0240444EA0E6493F8AF
:1022F00003E044EA0E0493F802E044EA0E242C6062
:102300000433E0E7022A5A7842EA01222A801CBFFD
:102310009B782B70E2E7F0B5002357080C46BB42D0
:1023200004F10404056806D1D20744BF31F8233014
:102330002B802868F0BD34F804EC34F8026C46EACF
:102340000E462E600133EAE7704710B5044608B91F
:10235000012010BD437F03F0FF0213B90277FFF79E
:10236000F3FF022363772379E3B92368124A5A61A2
:102370009A6822F018029A6062792368D2B94FF005
:10238000FF321A619A68616922F060020A439A601A
:102390009A68A16922F080020A439A600123637758
:1023A000002010BDE268A168204600F07BF80028FC
:1023B000E2D0CDE72269E4E7B71DC104704738B524
:1023C000054698B1447FE4B2022C0DD00223437736
:1023D00003689A6842F001029A6000241A791C711D
:1023E000FFF7ECFF6C772C77204638BD012038BD15
:1023F000F8B5037F012B04464FF0020320D043774A
:10240000036A0127022B077715D0032B04D0BB42A8
:1024100014D1FFF753FF05E001EB8206B1422368B8
:1024200005D118680123637700232377F8BD51F89D
:10243000042B1A60F2E7FFF76EFFF3E70020F1E7E5
:102440001846F8BDF8B5037F012B04464FF0020390
:1024500024D043770368012707779F6847F0010777
:102460009F60076A022F14D0032F04D0012F13D1CD
:10247000FFF724FF04E001EB8206B14205D11868A2
:102480000123637700232377F8BD51F8042B1A60EA
:10249000F3E7FFF740FFF3E70020F1E71846F8BD48
:1024A000407F704730B51F23012404FA03F50D4225
:1024B0000AD113F1FF33F8D2102A03D0182A01D021
:1024C000082A0BD1012030BD102A10D0182A03D0C1
:1024D000082A03D10F2B00E0062BF3D800684161D6
:1024E000836823F018031A438260002030BD072B55
:1024F000F3E7026802234377936823F060031943EC
:1025000001239160437700207047026802234377DC
:10251000936823F0800319430123916043770020DF
:1025200070470000074AD36823F4E0631B041B0CC8
:1025300043F0BF63000243F4003300F4E060034360
:10254000D360704700ED00E0174B30B5DC68C4F392
:102550000224C4F10703251D042B28BF0423062DE4
:102560004FF0010505FA03F303F1FF338CBF033C81
:1025700000241940A14005FA04F4013C224000283F
:1025800042EA01024FEA0212AFBF00F1604000F0E0
:102590000F00064BD2B2A5BF00F56140D2B21A546B
:1025A00080F8002330BD00BF00ED00E014ED00E036
:1025B0004209012300F01F0003FA00F0014B43F829
:1025C0002200704700E100E04309012200F01F00F3
:1025D00002FA00F02033024A42F82300704700BF9D
:1025E00000E100E0BFF34F8F0549064BCA6802F4D3
:1025F000E0621343CB60BFF34F8F00BFFDE700BF26
:1026000000ED00E00400FA050138B0F1807F0AD245
:10261000064B074A5860F02182F823100020072259
:1026200098601A6070470120704700BF10E000E01A
:1026300000ED00E0124A437810B593600178D9B1FB
:102640004368D360C37A047B1B0643EA04730B43DD
:10265000817A43EAC143417B43EA8143817B43EA78
:102660004143C17B43EA0143417A43EA0123017AB2
:1026700043EA4103136110BDD160116110BD00BF79
:1026800090ED00E0024BD868C0F30220704700BF15
:1026900000ED00E070B50028ADBF00F1604000F033
:1026A0000F00114C00F5614001F00701B4BF255C3B
:1026B00090F80053C1F107000C1D042828BF042026
:1026C000062C4FEA15158CBF03390021012425FA89
:1026D00001F604FA00F004FA01F101380139304042
:1026E00029401060196070BD14ED00E0430901221B
:1026F00000F01F0002FA00F04033024A42F82300C3
:10270000704700BF00E100E04309054A403300F094
:102710001F0052F8233023FA00F000F00100704748
:1027200000E100E04309012200F01F0002FA00F07E
:102730006033024A42F82300704700BF00E100E026
:102740004309054A803300F01F0052F8233023FA72
:1027500000F000F00100704700E100E0044B1A684F
:1027600004280CBF42F0040222F004021A607047F1
:1027700010E000E0704708B5FFF7FCFF08BD00BFA0
:1027800010B500B390F821300BB980F82030846880
:10279000436801682343C4680A68234304692343E8
:1027A0004469234384692343C46922F47F5222F09D
:1027B0003002234313430B6001220023836380F81C
:1027C0002120184610BD012010BD30B5002800F0B2
:1027D000DA8003686D491A6822F001021A608B42A0
:1027E0004FF000021A605A609A60DA6028D9684C8B
:1027F000A3421ED0674A93421DD0143293421CD08C
:10280000143293420CBF4FF400524FF4003262492D
:10281000A3424A6049D10822A3424A607CD10423E2
:102820004B600023836380F8213080F82030184605
:1028300030BD0222EBE72022E9E74FF40072E6E721
:10284000564CA34221D0564A934220D01432934290
:102850001FD0143293421FD0143293421FD014322F
:1028600093421FD08B420CBF4FF000724FF40032E6
:102870004C4DA3426A602BD108224A4DA3426A60A4
:102880005DD10423474A5360CBE70222F0E72022C0
:10289000EEE74FF40072EBE74FF40052E8E74FF435
:1028A0000032E5E74FF40012E2E73A4A93420AD0D9
:1028B0001432934209D0143293420CBF4FF40042B9
:1028C0004FF40022A8E78022A6E74FF40062A3E7B6
:1028D000334A934212D01432934211D014329342AD
:1028E00011D01432934211D01432934211D08B4242
:1028F0000CBF4FF000624FF40022BEE78022BCE71D
:102900004FF40062B9E74FF40042B6E74FF40022FB
:10291000B3E74FF40002B0E71E4A93420AD01432E4
:10292000934209D0143293420CBF4FF480434FF4CA
:10293000802375E7402373E74FF4806370E7184AFC
:10294000934212D01432934211D01432934211D0D8
:102950001432934211D01432934211D08B4214BFDF
:102960004FF480234FF080638CE740238AE74FF4D5
:10297000806387E74FF4804384E74FF4802381E747
:102980004FF480037EE7012030BD00BF800002408D
:10299000080402401C0402400004024008000240F7
:1029A0001C0002400000024030B590F82040012C8D
:1029B0004FF0020417D080F821400468012580F808
:1029C0002050256825F00105256063604368102BC1
:1029D0000BBFA260A160E160E260236843F00103E5
:1029E0002360002030BD204630BD30B590F8204037
:1029F000012C4FF0020423D080F821400468012507
:102A000080F82050256825F0010525606360436843
:102A1000102B0BBFA260A160E160E260236843F06D
:102A200002032360236843F004032360236843F018
:102A300008032360236843F001032360002030BDB6
:102A4000204630BD026838B5136823F001031360D7
:102A50000446FDF7BFFC05462368186810F0010026
:102A600005D1012384F8213084F8200038BDFDF71A
:102A7000B1FC401BB0F57A7FEED9A36B43F0200385
:102A8000A3630320002384F8210084F8203038BD9C
:102A900090F82130022B10B503D00423836301206A
:102AA00010BD03681A6822F00E021A601A6822F03C
:102AB00001021A60294A934224D902F562729342B4
:102AC00019D01432934218D01432934217D01432D2
:102AD00093420CBF4FF480534FF48033204A53602D
:102AE000012380F82130436B002480F820409BB301
:102AF0009847204610BD0123F0E71023EEE74FF47E
:102B00008073EBE717498B4216D014318B4215D0F6
:102B100014318B4214D014318B4214D014318B42B7
:102B200014D014318B4214D0934214BF4FF480332D
:102B30004FF080730C4AD2E70123FBE71023F9E73B
:102B40004FF48073F6E74FF48053F3E74FF480338C
:102B5000F0E74FF48013EDE7184610BD8000024007
:102B60000004024008000240000002402DE9F84F36
:102B70000546924689460468B64FB74E00294ED1A5
:102B8000BC427DD0B54B9C427CD014339C427BD060
:102B900014339C4268D014339C4268D014339C4256
:102BA00068D0B44269D003F567739C4268D014338F
:102BB0009C4267D014339C4266D014339C4214BFAD
:102BC0004FF400344FF40054FDF704FCDFF8A0820A
:102BD00083462B68A249A34ADFF88CE2B34240F255
:102BE0001581D8F80000044264D0B9F1000F00F05C
:102BF0004381934200F08A819B4A934200F088818E
:102C00001432934200F08681143293420CBF4FF489
:102C100080434FF48023C8F8043011233EE1BC42C6
:102C200041D08E4B9C4240D014339C423FD0143351
:102C30009C422CD014339C422CD014339C422CD078
:102C4000B4422DD003F567739C422CD014339C42C0
:102C50002BD014339C422AD014339C420CBF4FF427
:102C600080444FF48024AFE74FF40054ACE74FF4B6
:102C70000034A9E74FF40014A6E74FF00074A3E76F
:102C80000224A1E720249FE74FF400749CE74FF44F
:102C9000804499E74FF4802496E74FF4800493E74B
:102CA0004FF0806490E704248EE740248CE74FF4D3
:102CB000806489E79342D8F800C04CD073454CD06B
:102CC0006A4883424BD0143083420CBF4FF400401B
:102CD0004FF4002010EA0C0F14BF01200020002840
:102CE00079D0B3424ED95F4A934244D014329342D2
:102CF00043D01432934242D0143293420CBF4FF46B
:102D000000434FF400235A4A5360AB6B43F0010376
:102D1000AB63042385F82130002385F8203001209F
:102D2000BDE8F88FBB42D0F800C014D04B488342B6
:102D300013D01430834212D01430834212D0143096
:102D4000834212D08B4213D0B3420CBF4FF00060CD
:102D50004FF40020BEE70820BCE78020BAE74FF41C
:102D60000060B7E74FF40040B4E74FF40020B1E74C
:102D70004FF40000AEE70823C5E78023C3E74FF414
:102D80000063C0E7BB4216D0344A934215D01432D8
:102D9000934214D01432934214D01432934214D07C
:102DA0001432934214D0B34214BF4FF400234FF0B7
:102DB0000063304AA8E70823FBE78023F9E74FF4D4
:102DC0000063F6E74FF40043F3E74FF40023F0E726
:102DD0004FF40003EDE7BAF1FF3F3FF4FFAEBAF165
:102DE000000F0BD1AB6B43F02003AB630320002338
:102DF00085F8210085F82030BDE8F88FFDF7EAFA64
:102E0000A0EB0B008245BFF4E4AEEBE71948D0F825
:102E100000C014EA0C0F85D0B9F1000F4CD0BB42B2
:102E20007BD00E4A93427AD01432934279D0143236
:102E3000934279D01432934279D01432934279D0AC
:102E4000B34214BF4FF480234FF08063094A5360AC
:102E5000E3E600BF08000240800002401C00024080
:102E60006C000240080402401C040240300402408E
:102E70000004024000000240934216D02F4A9342C1
:102E800015D01432934214D0143293420CBF4FF435
:102E900000534FF40033C8F804300123002085F8B4
:102EA000213085F82000BDE8F88F0223F3E72023C6
:102EB000F1E74FF40073EEE7BB4217D0204A93428C
:102EC00016D01432934215D01432934215D01432D6
:102ED000934215D01432934215D0B34214BF4FF42D
:102EE00000334FF00073174A5360D6E70223FAE726
:102EF0002023F8E74FF40073F5E74FF40053F2E7AF
:102F00004FF40033EFE74FF40013ECE7042382E6BD
:102F1000402380E64FF480637DE6042396E7402358
:102F200094E74FF4806391E74FF480438EE74FF4CA
:102F300080238BE74FF4800388E700BF1C04024026
:102F40001C0002400000024070B50368C34DAB4254
:102F5000044640F2E380C24A11680832934200F00E
:102F6000D6801432934200F0D4801432934200F0A1
:102F7000D2801432934214BF4FF400224FF4004227
:102F80000A4230D01A68120729D51A68AB4222F0DB
:102F900008021A6040F23B81B24A934200F030814D
:102FA0001432934200F02E811432934200F02C81AF
:102FB000143293420CBF4FF400434FF40023A84A4D
:102FC0005360A36B43F00103A363042384F821300F
:102FD000002384F82030236B0BB1204698472368E8
:102FE000AB4240F2B8809E4A11680832934200F02A
:102FF00042811432934200F040811432934200F037
:103000003E811432934214BF4FF480224FF4804229
:103010000A4200F0B9811A68560725D51A68900649
:1030200003D41A6822F004021A60AB4240F24181D4
:103030008C4A934200F036811432934200F034817E
:103040001432934200F032811432934214BF4FF491
:1030500080234FF48043824A5360112384F8213047
:10306000E36A0BB1204698472368AB4240F2978051
:103070007B4A11680832934200F045811432934232
:1030800000F043811432934200F0418114329342A4
:1030900014BF4FF400324FF400520A4214BF012211
:1030A0000022002A00F072811A68910740F16E81B7
:1030B0001A68920603D41A6822F002021A60AB4220
:1030C00040F23881674A934200F02D8114329342D6
:1030D00000F02B811432934200F029811432934284
:1030E00014BF4FF400334FF400535D4A5360A36B99
:1030F000A363012384F82130002384F82030A36ADD
:10310000002B00F043812046BDE87040184708229C
:1031100036E7802234E74FF4006231E7524A116803
:10312000083293425CD0143293425BD01432934203
:103130005AD0143293425AD0143293425AD0143295
:1031400093425AD0AB4214BF4FF400224FF00062BA
:103150000A427FF417AF444A11680832934200F0E4
:1031600091801432934200F08F801432934200F029
:103170008D801432934200F08C801432934200F020
:103180008B801432934200F08A80AB4214BF4FF41C
:1031900080224FF080620A427FF43DAF2368324ABA
:1031A00011680832934200F0AE801432934200F06E
:1031B000AC801432934200F0AA801432934200F0A3
:1031C000A9801432934200F0A8801432934200F098
:1031D000A780AB4214BF4FF400324FF000725CE79F
:1031E0000822B5E78022B3E74FF40062B0E74FF45E
:1031F0000042ADE74FF40022AAE74FF40002A7E730
:103200000823DCE68023DAE64FF40063D7E6174AAA
:10321000934216D01432934215D01432934214D0F4
:103220001432934214D01432934214D01432934285
:103230001ED0AB420CBF4FF000634FF400230A4A8C
:10324000BEE60823FBE78023F9E74FF40063F6E7C7
:103250004FF40043F3E74FF40023F0E7800002400F
:10326000000402400804024000000240080002403E
:103270004FF40003E3E70422CAE64022C8E64FF415
:103280008062C5E6042286E7402284E74FF480622C
:1032900081E74FF480427EE74FF480227BE74FF4D2
:1032A000800278E70423D6E64023D4E64FF4806317
:1032B000D1E6374A934216D01432934215D01432D5
:1032C000934214D01432934214D01432934214D047
:1032D0001432934214D0AB4214BF4FF480234FF00A
:1032E00080632C4AB8E60423FBE74023F9E74FF458
:1032F0008063F6E74FF48043F3E74FF48023F0E771
:103300004FF48003EDE70222C7E62022C5E64FF422
:103310000072C2E64FF40052BFE64FF40032BCE642
:103320004FF40012B9E60223DFE62023DDE64FF476
:103330000073DAE6164A934216D01432934215D03F
:103340001432934214D01432934214D01432934264
:1033500014D01432934214D0AB4214BF4FF4003354
:103360004FF000730B4AC1E60223FBE72023F9E785
:103370004FF40073F6E74FF40053F3E74FF40033D4
:10338000F0E74FF40013EDE7236871E670BD00BF6E
:10339000080002400000024090F821007047806B56
:1033A000704700BF0B4AD36813F0100305D00A49D9
:1033B000CB6943F00203CB611023D268520706D5D4
:1033C0000549CA6942F00102CA6143F00403014A97
:1033D000D3607047002002405003002070B51D46A6
:1033E000134B14461A7E012A20D0124E01221A765F
:1033F0003269012842F4A05232619960C3E9044560
:103400000CD103221A7058600A4A0020D86113694F
:10341000A4B243F0010313610C8070BD02284FF089
:103420000402EFD0052018705A60EDE7022070BD4D
:10343000500300200020024070477047424BDA687A
:1034400012F0100F70B5414C02D1DB685A0709D554
:103450004FF0FF33A068A360FFF7A4FFFFF7EDFF75
:1034600000232370384DEB689B0618D52023EB60B2
:103470002378A3B12378012B27D16368013B6360D4
:103480006368DBB1A068FFF7D7FFA06800F50060B4
:10349000A0602B6923F002032B6100F0BFFA2378B0
:1034A00003F0FF014BB9284B1A6922F007021A6199
:1034B0001A6922F4A0521A61217670BD4FF0FF30D4
:1034C000A0602370FFF7B8FFE9E72378022B09D14A
:1034D0002B6923F004032B610020FFF7ADFF0023CD
:1034E0002370DCE76368013B63606368D3B1A36862
:1034F0000233A360A668D4E90401020C42EA014247
:103500000B0CC4E904232B6923F001032B61D4E9DC
:1035100004230023E3612B6992B243F001032B6182
:103520003280BCE72378032B06D1A068FFF784FF25
:103530004FF0FF33A360D2E72378A068042B0CBFC1
:1035400002380638F2E700BF002002405003002096
:10355000064B1A69120641BF054A5A6002F18832C9
:1035600000204CBF5A600120704700BF002002407D
:1035700023016745034A136943F080031361002068
:10358000704700BF00200240064B186910F400701D
:1035900001BF054A9A6002F188329A6018BF012083
:1035A000704700BF0020024023016745034A1369AA
:1035B00023F4007313610020704700BF0020024015
:1035C000014BD869704700BF50030020F8B505468D
:1035D000FCF700FF104C07462646E368D9070FD4D6
:1035E000E3689A0644BF2023E360F368DB0603D454
:1035F000F06810F0040002D0FFF7D4FE0120F8BDFF
:10360000681CEAD00DB90320F8BDFCF7E3FEC01B2F
:103610008542E2D2F7E700BF002002402DE9F84FD3
:103620001F4C9946237E012B05460F46904633D00A
:1036300001234CF250302376FFF7C8FF40BB012D29
:1036400003D0022D0CBF022504250026DFF854B05C
:10365000B24632014046494609F076FDC4F81CA046
:10366000DBF8103080B243F00103CBF8103027F8BC
:1036700016004CF25030FFF7A9FFDBF8103023F0B2
:103680000103CBF8103018B90136F3B29D42E0D8EF
:1036900000232376BDE8F88F0220BDE8F88F00BF35
:1036A0005003002000200240044A136943F40053F1
:1036B00013614CF25030FFF789BF00BF0020024079
:1036C000064B0022DA61064B1A6942F004021A61C5
:1036D0001A6942F040021A61704700BF500300208F
:1036E0000020024038B505464CF25030FFF76EFF1F
:1036F00010BB124B124CD861236943F020032361A5
:10370000236943F0400323614CF25030FFF75EFF22
:10371000236923F02003236170B9236943F0100368
:103720002361084BADB21D804CF25030FFF74EFFC5
:10373000236923F01003236138BD00BF500300202C
:103740000020024000F8FF1F38B5154BDB6903F07D
:103750000603022B20D0062B0CBFCC25AA254CF249
:103760005030FFF733FFC8B90E4A0D4CD0612369C2
:1037700043F020032361236943F0400323614CF2AB
:103780005030FFF723FF236923F02003236128B97A
:103790002846BDE83840A5E7BB25E0E738BD00BFB7
:1037A00000200240500300202DE9F0417A4D2B7E8D
:1037B000012B064600F0EC8033680120DC072876F8
:1037C00040F1A1807368754FB468D7F820808342B8
:1037D0004CF2503050D1FFF7F9FE50BBE861FFF7D3
:1037E000B3FF30BB3A6928EA0404E3B242F01002A6
:1037F000FF2B3A610CD1C4F30723FF2B1DD1C4F377
:103800000743FF2B24D1240EFF2C2CD1002009E0EC
:10381000634A11890B4013814CF25030FFF7D6FEFA
:103820000028E8D05D4A136923F0100313610028D3
:1038300069D000232B76BDE8F081594A51890B40AD
:1038400053814CF25030FFF7C1FE0028D7D0E9E792
:10385000534A91890B4093814CF25030FFF7B6FEEA
:103860000028D0D0DEE74E4BDA891440DC814CF2E0
:103870005030FFF7ABFED5E7FFF7A8FE0028D8D100
:10388000E861FFF761FF0028D3D13A6944EA0804F0
:10389000E3B242F01002FF2B3A6110D1C4F30723C8
:1038A000FF2B18D1C4F30743FF2B20D1240EFF2C8C
:1038B000ACD03B4AD3899BB21C43D481D7E738496B
:1038C0000A8992B213430B814CF25030FFF77EFE0F
:1038D0000028A7D1E2E732494A8992B213434B81CB
:1038E0004CF25030FFF772FE0028DBD09AE72C49EB
:1038F0008A8992B213438B814CF25030FFF766FEF7
:103900000028D3D08EE73368990704D5307BFFF7C2
:10391000E9FE00288DD133685A071BD54CF2503090
:10392000777BFFF753FE002883D11C4CE8612369A5
:1039300043F0100323611A4B47F088075F804CF275
:103940005030FFF743FE236923F010032361002862
:103950007FF46FAF33681B077FF56BAF4CF25030CD
:103960003769367DFFF732FE00287FF462AF0B4CDB
:10397000E8612369B6B243F0100323614CF2503082
:103980003E80FFF723FE236923F01003236150E7F5
:103990000220BDE8F08100BF50030020002002405B
:1039A00000F8FF1F072303600D4B1A6A8260DA6973
:1039B00002F00602022A10D0062A0CBFCC22AA224C
:1039C0000273DB694FF4807292FAA2F2B2FA82F2C9
:1039D00003F4EE43D34043737047BB22F0E700BFCC
:1039E000002002400B4B98420B4BD86909D14FF491
:1039F0007F0393FAA3F3B3FA83F300F47F00D84074
:103A000070474FF07F4393FAA3F3B3FA83F300F0C8
:103A10007F40F4E704F8FF1F00200240064B00221D
:103A2000DA61064B1A6942F002021A6158611A699A
:103A300042F040021A61704750030020002002400B
:103A40002DE9F041234D2B7E012B074688463DD0C2
:103A500003680124A3422C764CF2503013D1FFF7B7
:103A6000B5FD20B1012000232B76BDE8F081FFF7E2
:103A700027FE4CF25030FFF7A9FD174A136923F0D7
:103A800004031361EFE7FFF7A1FD0028EAD14FF02F
:103A9000FF33C8F8003020467E680F4CBA687B6858
:103AA00003EBC2239E42DED23046FFF7B7FF4CF253
:103AB0005030FFF78BFD236923F00203236110B11F
:103AC000C8F80060CFE706F50066E7E70220BDE82A
:103AD000F08100BF5003002000200240124A38B598
:103AE000137E012B1BD011780123137601F0FF0404
:103AF000B9B90E4D296941F4A05129610168994273
:103B000005D102231370FFF7DBFD204638BD13708B
:103B10008368406853609060FFF780FFF5E70220FC
:103B200038BD184638BD00BF5003002000200240B9
:103B30002DE9F74FD1F80080DFF874915A4A00233D
:103B400038FA03F402D103B0BDE8F08F012404FA7F
:103B500003FA18EA0A0500F09C804C6824F0100B68
:103B6000BBF1020F14D14FEAD30E00EB8E0E03F01F
:103B7000070CDEF820604FEA8C0C0F2707FA0CF7D1
:103B800026EA07070E6906FA0CF63E43CEF82060D7
:103B90004FEA430C0327066807FA0CF7FF4304F0CB
:103BA000030E3E400EFA0CFE0BF1FF3B4EEA0606FA
:103BB000BBF1010F066011D8866806EA070BCE68D4
:103BC00006FA0CFE4EEA0B068660466826EA0A0AEA
:103BD000C4F300169E4046EA0A064660C6683740AF
:103BE0008E6806FA0CF63743E600C76051D5D9F85F
:103BF000186046F00106C9F81860D9F8186023F07B
:103C0000030707F1804706F0010607F580370196A4
:103C100003F0030C019EBE684FEA8C0C4FF00F0EB0
:103C20000EFA0CFEB0F1904F26EA0E0E33D01F4E66
:103C3000B04232D006F58066B04230D006F58066DC
:103C4000B0422ED006F58066B04214BF0526042689
:103C500006FA0CF646EA0E06BE601668EF4314F448
:103C6000803F0CBF3E402E431660566814F4003F60
:103C70000CBF3E402E435660966814F4801F0CBF64
:103C80003E402E439660D668A40254BF3E402E4369
:103C9000D660013354E70026DAE70126D8E702268A
:103CA000D6E70326D4E700BF000401400004004823
:103CB000001002402DE9F04F374CDFF8E49000236C
:103CC0004FF0010C4FF003084FF00F0E31FA03F2E2
:103CD00001D1BDE8F08F0CFA03FA11EA0A0551D0C0
:103CE0005A00066808FA02F2D243DF08164000EBD9
:103CF0008707066003F00706D7F820B0B6000EFA73
:103D000006F62BEA06063E6286681640866046681E
:103D100026EA0A064660C6683240C26023F0030203
:103D200002F1804202F5803203F003079668BF007B
:103D30000EFA07FBB0F1904F06EA0B0A24D0174E9B
:103D4000B04223D006F58066B04221D006F58066E9
:103D5000B0421FD048450CBF04260526BE40B245E0
:103D600010D1966826EA0B0696602268ED432A4039
:103D7000226062682A406260A2682A40A260E2680B
:103D80001540E5600133A1E70026E7E70126E5E7F6
:103D90000226E3E70326E1E70004014000040048AF
:103DA000001000480369194214BF01200020704729
:103DB0000AB181617047816270474369594041612E
:103DC000704782B04FF480330193019B0B43019302
:103DD000019BC361C161019BC361C3690193C06958
:103DE00080F48030C0F3004002B07047704708B5DF
:103DF000034B5969014202D05861FFF7F7FF08BD34
:103E00000004014003689A69910744BF00229A6246
:103E10009A69D2075EBF9A6942F001029A617047BF
:103E2000704730B50568039C686820F07F7020F407
:103E30005930C1F30901234320F47F70194320F066
:103E4000030041EA02410143696030BD184B30B5BF
:103E5000446B9C4201F0120201F0040302D0154DA4
:103E6000AC4213D1002B01F011010CBF0023B82389
:103E7000112908BF43F09003122A01D143F06003D7
:103E8000026811680B431360002030BD002B0CBF8B
:103E90000023B823CC0748BF43F0F203890748BF8B
:103EA00043F0F403122A08BF43F02003E8E700BF01
:103EB000675E0008255C000811F0010307D090F848
:103EC000413003F02803282B0CBF4223F2238A073A
:103ED00009D590F8412002F02802282A0CBF43F0AF
:103EE000440343F0F4034A0701F0110248BF43F0D2
:103EF000B80301F01201112A08BF43F09003122900
:103F000001680A6808BF43F0600322EA03030B60FC
:103F1000002070472DE9F041069F0446884616466A
:103F20001D462268936938EA03030CBF012300236E
:103F3000B34202D00020BDE8F0816B1CF2D055B92D
:103F4000202384F84130002384F8423084F8403044
:103F50000320BDE8F081FCF73DFAC01B8542E0D2AA
:103F6000EEE710B5446A2268136823F480431360B7
:103F7000638D9BB223B920461221BDE8104065E74E
:103F8000238D616AA06B1944638D61629BB2FF2B24
:103F90008CBFFF23638D2385238D2832FEF725FDFB
:103FA000E9E710B5446A21680B6823F400430B600D
:103FB000638D9BB223B920461221BDE8104045E72E
:103FC000238D626AE06B1A44638D62629BB2FF2BA1
:103FD0008CBFFF23638D2385238D2431FEF705FDE0
:103FE000E9E7036870B50446986910F010000D46C3
:103FF000164612D170BD691C10D04DB9202384F82B
:104000004130002384F8423084F84030032070BDF2
:10401000FCF7E0F9801B8542F0D3236899698A0692
:10402000E9D510222025DA612046DD61FFF7EAFE9E
:104030002268536823F0FF7323F48B3323F4FF7358
:1040400023F00103536004236364002384F8415088
:1040500084F8403084F84230012070BD70B50446C9
:104060000D46164623689B699B0701D5002070BD4D
:10407000324629462046FFF7B4FFB0B96A1CF1D09A
:104080006DB9636C43F020036364202384F84130EE
:10409000002384F8423084F84030032070BDFCF7E0
:1040A00099F9801B8542DDD2EBE7012070BDF7B5A1
:1040B000099E1F464FF400530446009315464FF0E7
:1040C0008073FAB2FFF7ADFE324608992046FFF73B
:1040D000C5FF28B1636C042B10D1012003B0F0BDE3
:1040E000012F23680CD1EDB29D62089B009600223F
:1040F00080212046FFF70EFF0028EFD00320EDE7D8
:104100002A0A9A62089932462046FFF7A7FF00283C
:10411000E0D12368E7E7F7B5099E1F464FF4005347
:104120000446009315460023FAB2FFF77AFE3246A2
:1041300008992046FFF792FF28B1636C042B10D139
:10414000012003B0F0BD012F23680CD1EDB29D62B8
:10415000089B0096002240212046FFF7DBFE002846
:10416000EFD00320EDE72A0A9A62089932462046EA
:10417000FFF774FF0028E0D12368E7E770B5044635
:104180000D46164623689B695B0701D5002070BD6C
:10419000324629462046FFF724FFB0B923689A69C2
:1041A000920614D52021D9615A6822F0FF7222F4B8
:1041B0008B3222F4FF7222F001025A60606484F8AC
:1041C000400084F8411084F84200012070BD5DB9C0
:1041D000636C43F020036364202384F841300023A0
:1041E00084F84030032070BDFCF7F4F8801B854252
:1041F000C8D2EDE7704770B504460D4616462368F1
:104200009B699B0601D5002070BD32462946204699
:10421000FFF7E7FEA0B96DB9636C43F02003636458
:10422000202384F84130002384F8423084F8403061
:10423000032070BDFCF7CEF8801B8542DFD2EBE790
:10424000012070BD704710B50446002847D090F893
:10425000413003F0FF021BB980F84020FFF7F2FF66
:10426000242384F841302368E1681A6822F00102AF
:104270001A60626822F070621A619A6822F4004241
:104280009A60A2682AB3012920D142F400429A60C0
:104290005A68616942F0007242F400425A60226931
:1042A0000A43A16942EA0122DA60216AE2690A430B
:1042B0001A601A6842F001021A600020202360642C
:1042C00084F84130206384F8420010BD42F4044277
:1042D0009A60022904BF4FF400625A60D8E70120B7
:1042E00010BD704710B5044698B10268242380F8C9
:1042F0004130136823F001031360FFF7F2FF002041
:10430000606484F8400084F84100206384F842002F
:1043100010BD012010BD2DE9F743984690F84130BB
:10432000202B04460E46914640F08C8090F8403099
:10433000012B00F08780012780F84070FCF74AF8D5
:104340001923054600903A464FF400412046FFF7F6
:10435000E1FD00284BD1212384F84130102384F85B
:1043600042306064A4F82A80638DC4F824909BB224
:10437000FF2B606327D9FF224FF40053228500935F
:104380004FF0807331462046FFF74BFD638D0A994D
:104390009BB22A46204603BBFFF72DFF00BB2368D4
:1043A0002021D9615A6822F0FF7222F48B3222F464
:1043B000FF7222F001025A6084F8411084F8400034
:1043C00084F8420010E0628D4FF4005392B22285CF
:1043D00000934FF00073D2B2D4E7FFF73FFE40B135
:1043E000636C042B03D1012003B0BDE8F0830320EC
:1043F000FAE7636A2268591C61621B789362638DD5
:10440000228D013B013A9BB292B263852285002A3C
:10441000BCD1638D9BB2002BB8D000950A9B802144
:104420002046FFF777FD0028E1D1638D9BB2FF2B7B
:1044300003D9FF2222850090A2E7628D009092B2FC
:104440002285C6E70220CFE72DE9F743984690F88A
:104450004130202B04460E46914640F08C8090F867
:104460004030012B00F08780012780F84070FBF777
:10447000B1FF1923054600903A464FF4004120460B
:10448000FFF748FD00284BD1222384F84130102348
:1044900084F842306064A4F82A80638DC4F82490C4
:1044A0009BB2FF2B606327D9FF224FF41053228564
:1044B00000934FF0807331462046FFF7B2FC638DC6
:1044C0000A999BB22A46204603BBFFF794FE00BB25
:1044D00023682021D9615A6822F0FF7222F48B32BE
:1044E00022F4FF7222F001025A6084F8411084F82D
:1044F000400084F8420010E0628D4FF4105392B2F5
:10450000228500934FF00073D2B2D4E7FFF736FE56
:1045100040B1636C042B03D1012003B0BDE8F083EC
:104520000320FAE7636A5A1C62622268526A1A70B0
:10453000228D638D013A013B92B29BB22285638545
:10454000002ABCD1638D9BB2002BB8D000950A9B8A
:1045500080212046FFF7DEFC0028E1D1638D9BB26D
:10456000FF2B03D9FF2222850090A2E7628D0090E5
:1045700092B22285C6E70220CFE72DE9F74390F8F3
:104580004170FFB2202F0446894690461D4640F0F8
:10459000908019B9012003B0BDE8F083002AF9D05A
:1045A00090F84030012B00F08480012380F84030E7
:1045B000FBF710FF002221686263212384F8413059
:1045C00084F842706264A4F82A804B68C4F824908E
:1045D00023F400434B60064600902B4608212046FA
:1045E000FFF798FC2368024628B15A6842F400425B
:1045F0005A600320CFE70827DF61E368022B09D167
:104600002B46009639462046FFF784FC2368002895
:10461000EBD1DF6100962B4600224FF4803120461B
:10462000FFF778FCD0B12268536843F4004353602D
:10463000DFE7FFF713FD236838B15A6842F4004200
:104640005A60636C042BD4D1A4E7626A511C616286
:1046500012789A62638D013B9BB26385678DBFB20E
:10466000324629462046002FE3D1FFF7C4FD2368D8
:1046700038B15A6842F400425A60626C042AB8D1D8
:1046800067642027DF6101222B4600964FF400412A
:104690002046FFF73FFC23685A6842F400425A6004
:1046A0000028A6D184F8417084F8400084F84200C4
:1046B00071E702206FE72DE9F34790F84170FFB2F0
:1046C000202F04468A4691461D4640F08F800029DF
:1046D00054D0002A52D090F84030012B00F0868050
:1046E0004FF0010880F84080FBF774FE2168C4F8A1
:1046F00024A00022222384F8413084F842706264AE
:10470000A4F82A904B68626323F400434B6006468A
:1047100000902B4608212046FFF7FCFB236828B1B8
:104720005A6842F400425A60032028E00822DA6105
:104730004FF4803100962B4642462046FFF7EAFBB5
:1047400048B32268536843F400435360ECE7FFF733
:1047500015FD2368B0B15A6842F400425A609A6964
:10476000520708D5626A5B6A511C61621370638DDF
:10477000013B9BB26385636C202BD5D0012002B036
:10478000BDE8F087626A5B6A511C61621370638DD9
:10479000013B9BB26385638D9BB23246294620461E
:1047A000002BD4D1FFF727FD236838B15A6842F4B3
:1047B00000425A60636C042BB6D1DFE72027DF612B
:1047C00001222B4600964FF400412046FFF7A2FB42
:1047D00023685A6842F400425A600028A4D184F841
:1047E000417084F8400084F84200C8E70220C6E720
:1047F00037B5044690F84100202837D120688069F9
:1048000010F4004032D194F84050012D2ED00125F3
:1048100084F84050212584F84150102584F84250F6
:1048200060646385124BE362124B6363638D626263
:104830009BB2FF2B8BBFFF23638D238523854FF412
:1048400000508CBF4FF080734FF0007394F8282015
:10485000009000252046FFF7E4FA84F8405001213B
:104860002046FFF7F3FA284603B030BD0220FBE7ED
:104870000000FFFF495D000837B5044690F841008D
:10488000202837D12068806910F4004032D194F894
:104890004050012D2ED0012584F84050222584F867
:1048A0004150102584F8425060646385124BE362E6
:1048B000124B6363638D62629BB2FF2B8BBFFF233E
:1048C000638D238523854FF410508CBF4FF0807388
:1048D0004FF0007394F82820009000252046FFF741
:1048E000A0FA84F8405002212046FFF7AFFA28468C
:1048F00003B030BD0220FBE70000FFFF495D000868
:1049000070B590F84140E4B2202C1ED190F8405090
:10491000012D1AD0212580F84150066880F84240C8
:1049200000244464756825F4004575604285428D15
:104930000285074AC262074A4162426380F84040EA
:104940000521FFF783FA204670BD022070BD00BF2D
:104950000000FFFF755A000870B590F84140E4B2BE
:10496000202C1ED190F84050012D1AD0222580F81D
:104970004150066880F8424000244464756825F47C
:10498000004575604285428D0285074AC262074A2A
:104990004162426380F840400621FFF757FA204603
:1049A00070BD022070BD00BF0000FFFF755A0008F7
:1049B0002DE9F3410F46114690F84120202A044684
:1049C00065D10268906910F4004060D194F84050BD
:1049D000012D5CD0012584F84050212584F84150F8
:1049E000102584F84250606463852A4BE3622A4BA9
:1049F0006363638D61629BB2FF2B8BBFFF23638D6B
:104A000023852385258D8CBF4FF080784FF000786B
:104A10004DB3A06B214B83620026214B03632832E8
:104A20002B46C6624663FDF7E0FF4FF4005394F84F
:104A300028200093394643462046FFF7F2F9638D5C
:104A4000228D84F840609B1A9BB263851121204619
:104A5000FFF7FCF92268136843F480431360304683
:104A600002B0BDE8F0810F4B63634FF40053009335
:104A70002A464FF0007339462046FFF7D2F984F8F2
:104A8000405001212046FFF7E1F92846E8E70220DF
:104A9000E6E700BF0000FFFF675E0008633F000815
:104AA0002D5F0008495D00082DE9F3410F4690F89D
:104AB00041102029044665D10168886910F400403E
:104AC00060D194F84050012D5CD0012584F840500D
:104AD000222584F84150102584F842506064638593
:104AE000294BE362294B6363638D62629BB2FF2BA8
:104AF0008BBFFF23638D23852385258D8CBF4FF0CE
:104B000080784FF000784DB3E06B214B8362002634
:104B1000204B036324312B46C6624663FDF765FFD5
:104B20004FF4105394F8282000933946434620460A
:104B3000FFF777F9638D228D84F840609B1A9BB252
:104B4000638511212046FFF781F92268136843F439
:104B500000431360304602B0BDE8F0810E4B636342
:104B60004FF4105300932A464FF000733946204605
:104B7000FFF757F984F8405001212046FFF766F906
:104B80002846E8E70220E6E70000FFFF675E00082E
:104B9000A33F00082D5F0008495D000838B50446B2
:104BA00094F84130DBB2202B39D1002935D0002ACE
:104BB00033D094F84050012D31D0012584F8405075
:104BC000212584F84150002584F8423065646285CF
:104BD000638D144AE262A06B134A62639BB2134A6C
:104BE000616223858262124A02632268C56245635C
:104BF0002832FDF7FAFE2268536823F4004353601D
:104C0000042184F840502046FFF720F922681368F9
:104C100043F480431360284638BD012038BD02208C
:104C200038BD00BF0000FFFF255C0008F54100080B
:104C30002D5F000890F84130DBB2202B70B50446A0
:104C40003BD1002937D0002A35D090F84000012808
:104C500033D0012084F840000025222084F8410050
:104C600084F8423065646285638D154AE262E06BC8
:104C7000144A62639BB22668134A6162238582628A
:104C8000124A0263C5620A46456306F12401FDF734
:104C9000ACFE2268536823F400435360042184F877
:104CA00040502046FFF7D2F82268136843F40043CF
:104CB0001360284670BD012070BD022070BD00BF8A
:104CC0000000FFFF255C0008213E00082D5F000862
:104CD0002DE9F04F9B4690F8413085B0202B0446DB
:104CE0000F460392BDF83CA0DDF8409040F0A6804E
:104CF0000E9B1BB9012005B0BDE8F08FBAF1000F83
:104D0000F8D090F84030012B00F09880012580F811
:104D10004050FBF75FFB1923009006462A464FF4EC
:104D200000412046FFF7F6F88046D0B9212384F8E9
:104D30004130402384F842300E9B606463626063BC
:104D4000A4F82AA00196CDF800905B46039A394654
:104D50002046FFF7ACF930B1636C84F84080042B37
:104D6000C8D00320C7E7638D9BB2FF2B10D9FF2269
:104D7000228500904FF0807339462046FFF751F8A6
:104D8000324649462046FFF769F948B1636CE6E7C9
:104D9000628D009092B222854FF00073D2B2EBE7A1
:104DA000636A2268591C61621B789362638D228D4D
:104DB000013B013A9BB292B263852285BAB9638DF9
:104DC0009BB2A3B100964B4680212046FFF7A2F884
:104DD0000028C6D1638D9BB2FF2B27D9FF222285E5
:104DE00000904FF0807339462046FFF71AF8638D24
:104DF0009BB2002BC4D1324649462046FFF7FBF94F
:104E00000028C3D123682021D9615A6822F0FF729B
:104E100022F48B3222F4FF7222F001025A6084F8ED
:104E2000411084F8400084F8420064E7628D0090ED
:104E300092B222854FF00073D2B2D4E702205AE733
:104E40002DE9F04F9B4690F8413085B0202B044669
:104E50000F460392BDF83CA0DDF8409040F0AC80D6
:104E60000E9B1BB9012005B0BDE8F08FBAF1000F11
:104E7000F8D090F84030012B00F09E80012580F89A
:104E80004050FBF7A7FA1923009006462A464FF434
:104E900000412046FFF73EF88046D0B9222384F82F
:104EA0004130402384F842300E9B6064636260634B
:104EB000A4F82AA00196CDF800905B46039A3946E3
:104EC0002046FFF728F930B1636C84F84080042B4A
:104ED000C8D00320C7E7638D9BB2FF2B46D94FF4A0
:104EE0001053FF22009322854FF0807339462046ED
:104EF000FEF797FF00964B46002204212046FFF75D
:104F000009F80028E5D1636A5A1C62622268526A75
:104F10001A70228D638D013A013B92B29BB22285B9
:104F20006385BAB9638D9BB2A3B100964B468021CD
:104F30002046FEF7EFFF0028CBD1638D9BB2FF2BFD
:104F40001ED9FF22228500904FF0807339462046FB
:104F5000FEF767FF638D9BB2002BCBD132464946EB
:104F60002046FFF748F998B1636CB0E7628D4FF4C3
:104F7000105392B222850093D2B24FF00073B5E77E
:104F8000628D009092B222854FF00073D2B2DDE7BD
:104F900023682021D9615A6822F0FF7222F48B32F3
:104FA00022F4FF7222F001025A6084F8411084F862
:104FB000400084F8420056E7022054E72DE9F34709
:104FC0009A4690F84130DDF82880BDF82C70202BEF
:104FD00004460E46914656D1B8F1000F3DD0002F41
:104FE0003BD003689D6915F400454CD190F84030E2
:104FF000012B48D0012380F84030FBF7EBF9212347
:1050000084F84130402384F84230204B6564678542
:10501000E362618D1E4B636389B2FF298BBFFF235F
:10502000638D238523854FF0190301900093C4F805
:10503000248053464A46314620468CBF4FF0807745
:105040004FF00077FFF733F8054668B1636C042B27
:105050004FF0000384F8403001D1012500E0032522
:10506000284602B0BDE8F08700903146204694F80B
:1050700028203B46FEF7D5FE84F84050012120460B
:10508000FEF7E4FEECE70225EAE700BF0000FFFFC1
:10509000495D00082DE9F3479A4690F84130DDF864
:1050A0002880BDF82C70202B04460E46914658D11E
:1050B000B8F1000F3DD0002F3BD003689D6915F477
:1050C00000454ED190F84030012B4AD0012380F8A2
:1050D0004030FBF77FF9222384F84130402384F8E5
:1050E0004230214B65646785E362618D1F4B6363CA
:1050F00089B2FF298BBFFF23638D238523854FF062
:10510000190301900093C4F8248053464A4631465F
:1051100020468CBF4FF080774FF00077FEF7FBFF03
:10512000054668B1636C042B4FF0000384F84030EF
:1051300001D1012500E00325284602B0BDE8F08733
:105140004FF4105300933146204694F828203B46F4
:10515000FEF767FE84F8405002212046FEF776FEF7
:10516000EAE70225E8E700BF0000FFFF495D00080D
:105170002DE9F3479A4690F841300A9EBDF82C80FD
:10518000202B04460F4691466DD1002E3ED0B8F13B
:10519000000F3BD003689D6915F4004563D190F87A
:1051A0004030012B5FD0012380F84030FBF712F92B
:1051B000212384F84130402384F842302B4B65642E
:1051C000A4F82A80E362618D294B636389B2FF29C9
:1051D0008BBFFF23638D238523854FF01903019037
:1051E0000093666253464A46394620468CBF4FF0CC
:1051F00080784FF00078FEF75AFF054668B1636C7F
:10520000042B4FF0000384F8403001D1012500E069
:105210000325284602B0BDE8F087A06B154B226835
:105220008362154B03632832238DC5623146456383
:10523000FDF7DBFB94F828200095434639462046CD
:10524000FEF7EFFD638D228D84F840509B1A9BB2D0
:10525000638511212046FEF7F9FD2268136843F4A7
:1052600080431360D5E70225D3E700BF0000FFFFAE
:10527000675E0008633F00082D5F00082DE9F347D3
:105280009A4690F841300A9EBDF82C80202B0446A7
:105290000F4691466FD1002E3ED0B8F1000F3BD0A3
:1052A00003689D6915F4004565D190F84030012BE5
:1052B00061D0012380F84030FBF78CF8222384F87A
:1052C0004130402384F842302C4B6564A4F82A8096
:1052D000E362618D2A4B636389B2FF298BBFFF2391
:1052E000638D238523854FF0190301900093666237
:1052F00053464A46394620468CBF4FF080784FF0DF
:105300000078FEF708FF054668B1636C042B4FF088
:10531000000384F8403001D1012500E00325284630
:1053200002B0BDE8F087E06B2168164B8362164B34
:1053300003633246238DC56245632431FDF755FB77
:105340004FF4105394F828200093394643462046E2
:10535000FEF767FD638D228D84F840509B1A9BB247
:1053600022686385136843F40043136011212046CB
:10537000FEF76CFDD3E70225D1E700BF0000FFFF79
:10538000675E0008A33F00082D5F00082DE9FF4776
:105390001D460023039390F84130202B044690468D
:1053A0007CD103689B6913F4004377D190F84020C7
:1053B000012A73D0012280F84020C1F3090624227B
:1053C00080F8412046F420594364E3682268012BA9
:1053D00006BF46F0007343F400534B465360FAF7A0
:1053E000F9FF074623689A69910612D59A6912F067
:1053F00010022AD100972B4620212046FEF78AFD75
:10540000C8B103201EE0FAF7E5FFC01B8542E9D2D0
:105410000AE09A69D206E9D494F84120A02AE5D09E
:10542000681CE0D0002DEED1202384F84130002309
:1054300084F84030E5E722682023D36184F84130C6
:1054400084F8400004B0BDE8F087002200972B46A6
:1054500020212046FEF75EFD02460028D1D12368B8
:1054600010214FF0200AD961C3F81CA00399481CF1
:10547000414503900ED1596841F48041596020465E
:1054800000972B465146FEF745FD0028B9D1236809
:10549000C3F81CA0039B984597D8C5E70220D1E725
:1054A00037B5044690F84100202838D194F84000E0
:1054B000012834D0012084F84000212084F84100E4
:1054C000102084F84200002060646385069BE3623C
:1054D000144B6363638D62629BB2FF2B15D9FF236C
:1054E00023854FF400504FF0807394F828200090EB
:1054F00000252046FEF795FC84F840500121204607
:10550000FEF7A4FC284603B030BD638D2385E36A13
:10551000226B212A14BF4FF400500020E5E702203F
:10552000F1E700BF495D000837B5044690F8410037
:10553000202838D194F84000012834D0012084F884
:105540004000222084F84100102084F8420000200E
:1055500060646385069BE362144B6363638D6262E0
:105560009BB2FF2B15D9FF2323854FF410504FF02A
:10557000807394F82820009000252046FEF751FC07
:1055800084F8405002212046FEF760FC284603B014
:1055900030BD638D2385E36A226B122A14BF4FF45A
:1055A00010500020E5E70220F1E700BF495D000848
:1055B0002DE9F041984690F84130282B04460F46DB
:1055C00016462ED169B362B30521FEF775FC94F837
:1055D0004030012B28D0012384F84030292384F85F
:1055E000413020680021202384F8423061644568FE
:1055F00025F4004545606685638D2385C4F82C80BD
:105600000B4B636383696762DB0344BF0823C36199
:1056100084F8401020460521FEF718FC0020BDE864
:10562000F0810120BDE8F0810220BDE8F08100BFDB
:10563000755A00082DE9F041984690F84130282B22
:1056400004460F4616462ED169B362B30621FEF713
:1056500033FC94F84030012B28D0012384F84030EB
:105660002A2384F8413020680021202384F8423026
:105670006164456825F4004545606685638D238532
:10568000C4F82C800B4B636383696762DB035CBFE8
:105690000823C36184F8401020460621FEF7D6FB9C
:1056A0000020BDE8F0810120BDE8F0810220BDE8C6
:1056B000F08100BF755A000890F84120202A08B5F3
:1056C00009D1282280F84120044A42630421FEF7D0
:1056D000BDFB002008BD022008BD00BF755A0008B0
:1056E00090F84120282A10B513D190F8411090F875
:1056F000422001F003010A4302630024202280F8C3
:105700004120446380F842400421FEF7D5FB204647
:1057100010BD022010BD90F84230102B73B5044626
:105720000E4624D190F84030012B22D0012580F87C
:1057300040500221FEF7C0FB29462046FEF7BCFB85
:10574000602384F841304FF480432A460093314669
:105750004FF0007320460025FEF763FB84F84050AD
:1057600012212046FEF772FB284602B070BD0120D0
:10577000FBE70220F9E70268436B9169126803B105
:10578000184770477047704738B5002580F8425079
:1057900090F84130212B4FF02003044680F841302F
:1057A0000BD11123036345630121FEF785FB84F8C8
:1057B00040502046FFF7E6FF38BD122303634563E0
:1057C0000221FEF779FB84F840502046FFF7DBFF0B
:1057D00038BD7047704738B5002580F8425090F8C2
:1057E0004130292B04460DD1282380F84130212354
:1057F00003630121FEF760FB84F840502046FFF769
:10580000E8FF38BD90F841302A2B0CD1282380F8CE
:105810004130222303630221FEF74EFB84F84050FF
:105820002046FFF7D7FF38BD70477047164B10B5BD
:105830002022C36200230363436380F8412080F881
:1058400042304B07044611D5436A5A1C4262026833
:10585000526A1A70038D4BB1013B0385438D013BA6
:105860009BB24385436C43F0040343640721204605
:10587000FEF722FB23681022DA61002384F840300F
:105880002046FFF7D2FF10BD0000FFFF70477047B2
:10589000704770470023354A10B580F84230C26225
:1058A0004385436C1943416490F84130282B0446EA
:1058B00007D090F84130292B03D090F841302A2BA3
:1058C00022D103212046FEF7F7FA282384F841303D
:1058D00000232363264B6363236819681A6811F455
:1058E00080411ED022F48042A06B1A60214B43639A
:1058F000002384F84030FDF7CBF8002834D0A06BAB
:10590000436BBDE8104018470721FEF7D5FA94F81D
:105910004130602B1CBF202384F8413000232363D7
:10592000D9E712F400420DD01A68E06B22F400426D
:105930001A60104B436384F84010FDF7A9F898B142
:10594000E06BDDE794F84130602B08D1202384F828
:10595000413084F840202046FFF79BFF10BD84F8BB
:1059600040202046FFF794FF10BD00BF0000FFFF5E
:10597000755A0008995F000838B50368202204466C
:10598000DA610822DA610D460721FEF795FA2368ED
:105990005A6842F400425A605A6822F0FF7222F4B8
:1059A0008B3222F4FF7222F001025A602046FEF789
:1059B00029FA22681368580402D41368190409D517
:1059C00094F84130212B0CBFA36BE36B1B685B6821
:1059D0009BB26385638D9BB21BB1636C43F0040380
:1059E00063646B0710D5636A526A591C61621A704E
:1059F000238D4BB1013B2385638D013B9BB26385B6
:105A0000636C43F0040363640023236384F842302F
:105A10006363636C63B1616C2046FFF73BFF94F8EE
:105A20004130282B23D129462046BDE83840FDE6E9
:105A3000E26A12F5803F0AD00D4AE262202284F821
:105A4000412084F840302046FFF7EFFE38BD94F83F
:105A5000412084F84030222A4FF0200284F841206F
:105A6000204602D1FFF7B6FE38BDFFF7B2FE38BDC3
:105A70000000FFFF2DE9F84390F84030012B044669
:105A80000E46174600F0CB800123CD0680F840304B
:105A90003ED5D0063CD5638D9BB28BBBE36AB3F198
:105AA000007F03D0E36AB3F1007F14D194F8413052
:105AB000282B10D131462046FFF7B8FEB20605D597
:105AC000BB0603D531462046FFF756FF002084F879
:105AD0004000BDE8F883E36A13F5803F23680CD0EB
